{
  "_format": "hh3-artifact-1",
  "contractName": "EcoFund",
  "sourceName": "contracts/EcoFund.sol",
  "abi": [
    {
      "inputs": [
        {
          "internalType": "address",
          "name": "tokenAddress",
          "type": "address"
        }
      ],
      "stateMutability": "nonpayable",
      "type": "constructor"
    },
    {
      "inputs": [
        {
          "internalType": "uint256",
          "name": "",
          "type": "uint256"
        }
      ],
      "name": "campaigns",
      "outputs": [
        {
          "internalType": "string",
          "name": "title",
          "type": "string"
        },
        {
          "internalType": "string",
          "name": "description",
          "type": "string"
        },
        {
          "internalType": "uint256",
          "name": "goal",
          "type": "uint256"
        },
        {
          "internalType": "uint256",
          "name": "deadline",
          "type": "uint256"
        },
        {
          "internalType": "uint256",
          "name": "raised",
          "type": "uint256"
        },
        {
          "internalType": "address",
          "name": "creator",
          "type": "address"
        },
        {
          "internalType": "bool",
          "name": "finished",
          "type": "bool"
        }
      ],
      "stateMutability": "view",
      "type": "function"
    },
    {
      "inputs": [
        {
          "internalType": "uint256",
          "name": "id",
          "type": "uint256"
        }
      ],
      "name": "contribute",
      "outputs": [],
      "stateMutability": "payable",
      "type": "function"
    },
    {
      "inputs": [
        {
          "internalType": "uint256",
          "name": "",
          "type": "uint256"
        },
        {
          "internalType": "address",
          "name": "",
          "type": "address"
        }
      ],
      "name": "contributions",
      "outputs": [
        {
          "internalType": "uint256",
          "name": "",
          "type": "uint256"
        }
      ],
      "stateMutability": "view",
      "type": "function"
    },
    {
      "inputs": [
        {
          "internalType": "string",
          "name": "title",
          "type": "string"
        },
        {
          "internalType": "string",
          "name": "description",
          "type": "string"
        },
        {
          "internalType": "uint256",
          "name": "goal",
          "type": "uint256"
        },
        {
          "internalType": "uint256",
          "name": "duration",
          "type": "uint256"
        }
      ],
      "name": "createCampaign",
      "outputs": [],
      "stateMutability": "nonpayable",
      "type": "function"
    },
    {
      "inputs": [
        {
          "internalType": "uint256",
          "name": "id",
          "type": "uint256"
        }
      ],
      "name": "finalizeCampaign",
      "outputs": [],
      "stateMutability": "nonpayable",
      "type": "function"
    },
    {
      "inputs": [],
      "name": "getCampaignCount",
      "outputs": [
        {
          "internalType": "uint256",
          "name": "",
          "type": "uint256"
        }
      ],
      "stateMutability": "view",
      "type": "function"
    },
    {
      "inputs": [],
      "name": "token",
      "outputs": [
        {
          "internalType": "contract IToken",
          "name": "",
          "type": "address"
        }
      ],
      "stateMutability": "view",
      "type": "function"
    }
  ],
  "bytecode": "0x6080604052348015600e575f5ffd5b506040516109b53803806109b5833981016040819052602b91604f565b600280546001600160a01b0319166001600160a01b0392909216919091179055607a565b5f60208284031215605e575f5ffd5b81516001600160a01b03811681146073575f5ffd5b9392505050565b61092e806100875f395ff3fe60806040526004361061006e575f3560e01c80636caa92181161004c5780636caa921814610112578063a318f26914610125578063c1cbbca714610144578063fc0c546a14610157575f5ffd5b8063141961bc146100725780633d891f59146100ad5780636b5ca27d146100f1575b5f5ffd5b34801561007d575f5ffd5b5061009161008c366004610595565b61018e565b6040516100a497969594939291906105da565b60405180910390f35b3480156100b8575f5ffd5b506100e36100c7366004610634565b600160209081525f928352604080842090915290825290205481565b6040519081526020016100a4565b3480156100fc575f5ffd5b5061011061010b366004610595565b6102f6565b005b34801561011d575f5ffd5b505f546100e3565b348015610130575f5ffd5b5061011061013f36600461070c565b610376565b610110610152366004610595565b61044f565b348015610162575f5ffd5b50600254610176906001600160a01b031681565b6040516001600160a01b0390911681526020016100a4565b5f818154811061019c575f80fd5b905f5260205f2090600602015f91509050805f0180546101bb90610780565b80601f01602080910402602001604051908101604052809291908181526020018280546101e790610780565b80156102325780601f1061020957610100808354040283529160200191610232565b820191905f5260205f20905b81548152906001019060200180831161021557829003601f168201915b50505050509080600101805461024790610780565b80601f016020809104026020016040519081016040528092919081815260200182805461027390610780565b80156102be5780601f10610295576101008083540402835291602001916102be565b820191905f5260205f20905b8154815290600101906020018083116102a157829003601f168201915b50505050600283015460038401546004850154600590950154939491939092506001600160a01b03811690600160a01b900460ff1687565b5f5f8281548110610309576103096107b8565b905f5260205f2090600602019050806003015442101561035f5760405162461bcd60e51b815260206004820152600c60248201526b5374696c6c2061637469766560a01b60448201526064015b60405180910390fd5b600501805460ff60a01b1916600160a01b17905550565b5f6040518060e0016040528086815260200185815260200184815260200183426103a091906107cc565b81525f6020808301829052336040840152606090920181905283546001810185559381522081519192600602019081906103da908261083d565b50602082015160018201906103ef908261083d565b5060408201516002820155606082015160038201556080820151600482015560a08201516005909101805460c0909301511515600160a01b026001600160a81b03199093166001600160a01b039092169190911791909117905550505050565b5f5f8281548110610462576104626107b8565b905f5260205f2090600602019050806003015442106104b45760405162461bcd60e51b815260206004820152600e60248201526d10d85b5c185a59db88195b99195960921b6044820152606401610356565b5f34116104ee5760405162461bcd60e51b81526020600482015260086024820152670a6cadcc8408aa8960c31b6044820152606401610356565b34816004015f82825461050191906107cc565b90915550505f8281526001602090815260408083203384529091528120805434929061052e9084906107cc565b90915550506002546040516340c10f1960e01b81523360048201523460248201526001600160a01b03909116906340c10f19906044015f604051808303815f87803b15801561057b575f5ffd5b505af115801561058d573d5f5f3e3d5ffd5b505050505050565b5f602082840312156105a5575f5ffd5b5035919050565b5f81518084528060208401602086015e5f602082860101526020601f19601f83011685010191505092915050565b60e081525f6105ec60e083018a6105ac565b82810360208401526105fe818a6105ac565b60408401989098525050606081019490945260808401929092526001600160a01b031660a0830152151560c09091015292915050565b5f5f60408385031215610645575f5ffd5b8235915060208301356001600160a01b0381168114610662575f5ffd5b809150509250929050565b634e487b7160e01b5f52604160045260245ffd5b5f82601f830112610690575f5ffd5b813567ffffffffffffffff8111156106aa576106aa61066d565b604051601f8201601f19908116603f0116810167ffffffffffffffff811182821017156106d9576106d961066d565b6040528181528382016020018510156106f0575f5ffd5b816020850160208301375f918101602001919091529392505050565b5f5f5f5f6080858703121561071f575f5ffd5b843567ffffffffffffffff811115610735575f5ffd5b61074187828801610681565b945050602085013567ffffffffffffffff81111561075d575f5ffd5b61076987828801610681565b949794965050505060408301359260600135919050565b600181811c9082168061079457607f821691505b6020821081036107b257634e487b7160e01b5f52602260045260245ffd5b50919050565b634e487b7160e01b5f52603260045260245ffd5b808201808211156107eb57634e487b7160e01b5f52601160045260245ffd5b92915050565b601f82111561083857805f5260205f20601f840160051c810160208510156108165750805b601f840160051c820191505b81811015610835575f8155600101610822565b50505b505050565b815167ffffffffffffffff8111156108575761085761066d565b61086b816108658454610780565b846107f1565b6020601f82116001811461089d575f83156108865750848201515b5f19600385901b1c1916600184901b178455610835565b5f84815260208120601f198516915b828110156108cc57878501518255602094850194600190920191016108ac565b50848210156108e957868401515f19600387901b60f8161c191681555b50505050600190811b0190555056fea2646970667358221220b1e0df394318e0507fd73473558867f6a12c21b8cab865b3c0d99f67d7b8424564736f6c634300081c0033",
  "linkReferences": {},
  "deployedLinkReferences": {},
  "immutableReferences": {},
  "inputSourceName": "project/contracts/EcoFund.sol",
  "buildInfoId": "solc-0_8_28-f55c2ec09216c4621e5e1d5e778a1dccaf1a03b5"
}