{
  "_format": "hh3-artifact-1",
  "contractName": "EcoFund",
  "sourceName": "contracts/EcoFund.sol",
  "abi": [
    {
      "inputs": [
        {
          "internalType": "address",
          "name": "tokenAddress",
          "type": "address"
        }
      ],
      "stateMutability": "nonpayable",
      "type": "constructor"
    },
    {
      "inputs": [
        {
          "internalType": "uint256",
          "name": "",
          "type": "uint256"
        }
      ],
      "name": "campaigns",
      "outputs": [
        {
          "internalType": "string",
          "name": "title",
          "type": "string"
        },
        {
          "internalType": "string",
          "name": "description",
          "type": "string"
        },
        {
          "internalType": "uint256",
          "name": "goal",
          "type": "uint256"
        },
        {
          "internalType": "uint256",
          "name": "deadline",
          "type": "uint256"
        },
        {
          "internalType": "uint256",
          "name": "raised",
          "type": "uint256"
        },
        {
          "internalType": "address",
          "name": "creator",
          "type": "address"
        },
        {
          "internalType": "bool",
          "name": "finished",
          "type": "bool"
        }
      ],
      "stateMutability": "view",
      "type": "function"
    },
    {
      "inputs": [
        {
          "internalType": "uint256",
          "name": "id",
          "type": "uint256"
        }
      ],
      "name": "contribute",
      "outputs": [],
      "stateMutability": "payable",
      "type": "function"
    },
    {
      "inputs": [
        {
          "internalType": "uint256",
          "name": "",
          "type": "uint256"
        },
        {
          "internalType": "address",
          "name": "",
          "type": "address"
        }
      ],
      "name": "contributions",
      "outputs": [
        {
          "internalType": "uint256",
          "name": "",
          "type": "uint256"
        }
      ],
      "stateMutability": "view",
      "type": "function"
    },
    {
      "inputs": [
        {
          "internalType": "string",
          "name": "title",
          "type": "string"
        },
        {
          "internalType": "string",
          "name": "description",
          "type": "string"
        },
        {
          "internalType": "uint256",
          "name": "goal",
          "type": "uint256"
        },
        {
          "internalType": "uint256",
          "name": "duration",
          "type": "uint256"
        }
      ],
      "name": "createCampaign",
      "outputs": [],
      "stateMutability": "nonpayable",
      "type": "function"
    },
    {
      "inputs": [
        {
          "internalType": "uint256",
          "name": "id",
          "type": "uint256"
        }
      ],
      "name": "finalizeCampaign",
      "outputs": [],
      "stateMutability": "nonpayable",
      "type": "function"
    },
    {
      "inputs": [],
      "name": "getCampaignCount",
      "outputs": [
        {
          "internalType": "uint256",
          "name": "",
          "type": "uint256"
        }
      ],
      "stateMutability": "view",
      "type": "function"
    },
    {
      "inputs": [],
      "name": "token",
      "outputs": [
        {
          "internalType": "contract IToken",
          "name": "",
          "type": "address"
        }
      ],
      "stateMutability": "view",
      "type": "function"
    },
    {
      "inputs": [
        {
          "internalType": "uint256",
          "name": "id",
          "type": "uint256"
        }
      ],
      "name": "withdraw",
      "outputs": [],
      "stateMutability": "nonpayable",
      "type": "function"
    }
  ],
  "bytecode": "0x6080604052348015600e575f5ffd5b50604051610b25380380610b25833981016040819052602b91604f565b600280546001600160a01b0319166001600160a01b0392909216919091179055607a565b5f60208284031215605e575f5ffd5b81516001600160a01b03811681146073575f5ffd5b9392505050565b610a9e806100875f395ff3fe608060405260043610610079575f3560e01c80636caa92181161004c5780636caa92181461013c578063a318f2691461014f578063c1cbbca71461016e578063fc0c546a14610181575f5ffd5b8063141961bc1461007d5780632e1a7d4d146100b85780633d891f59146100d95780636b5ca27d1461011d575b5f5ffd5b348015610088575f5ffd5b5061009c610097366004610705565b6101b8565b6040516100af979695949392919061074a565b60405180910390f35b3480156100c3575f5ffd5b506100d76100d2366004610705565b610320565b005b3480156100e4575f5ffd5b5061010f6100f33660046107a4565b600160209081525f928352604080842090915290825290205481565b6040519081526020016100af565b348015610128575f5ffd5b506100d7610137366004610705565b61046b565b348015610147575f5ffd5b505f5461010f565b34801561015a575f5ffd5b506100d761016936600461087c565b6104e6565b6100d761017c366004610705565b6105bf565b34801561018c575f5ffd5b506002546101a0906001600160a01b031681565b6040516001600160a01b0390911681526020016100af565b5f81815481106101c6575f80fd5b905f5260205f2090600602015f91509050805f0180546101e5906108f0565b80601f0160208091040260200160405190810160405280929190818152602001828054610211906108f0565b801561025c5780601f106102335761010080835404028352916020019161025c565b820191905f5260205f20905b81548152906001019060200180831161023f57829003601f168201915b505050505090806001018054610271906108f0565b80601f016020809104026020016040519081016040528092919081815260200182805461029d906108f0565b80156102e85780601f106102bf576101008083540402835291602001916102e8565b820191905f5260205f20905b8154815290600101906020018083116102cb57829003601f168201915b50505050600283015460038401546004850154600590950154939491939092506001600160a01b03811690600160a01b900460ff1687565b5f5f828154811061033357610333610928565b905f5260205f2090600602019050806003015442101561038c5760405162461bcd60e51b815260206004820152600f60248201526e43616d706169676e2061637469766560881b60448201526064015b60405180910390fd5b60058101546001600160a01b031633146103d65760405162461bcd60e51b815260206004820152600b60248201526a2737ba1031b932b0ba37b960a91b6044820152606401610383565b5f81600401541161041f5760405162461bcd60e51b81526020600482015260136024820152724e6f7468696e6720746f20776974686472617760681b6044820152606401610383565b6004810180545f91829055600583015460405191926001600160a01b039091169183156108fc0291849190818181858888f19350505050158015610465573d5f5f3e3d5ffd5b50505050565b5f5f828154811061047e5761047e610928565b905f5260205f209060060201905080600301544210156104cf5760405162461bcd60e51b815260206004820152600c60248201526b5374696c6c2061637469766560a01b6044820152606401610383565b600501805460ff60a01b1916600160a01b17905550565b5f6040518060e001604052808681526020018581526020018481526020018342610510919061093c565b81525f60208083018290523360408401526060909201819052835460018101855593815220815191926006020190819061054a90826109ad565b506020820151600182019061055f90826109ad565b5060408201516002820155606082015160038201556080820151600482015560a08201516005909101805460c0909301511515600160a01b026001600160a81b03199093166001600160a01b039092169190911791909117905550505050565b5f5f82815481106105d2576105d2610928565b905f5260205f2090600602019050806003015442106106245760405162461bcd60e51b815260206004820152600e60248201526d10d85b5c185a59db88195b99195960921b6044820152606401610383565b5f341161065e5760405162461bcd60e51b81526020600482015260086024820152670a6cadcc8408aa8960c31b6044820152606401610383565b34816004015f828254610671919061093c565b90915550505f8281526001602090815260408083203384529091528120805434929061069e90849061093c565b90915550506002546040516340c10f1960e01b81523360048201523460248201526001600160a01b03909116906340c10f19906044015f604051808303815f87803b1580156106eb575f5ffd5b505af11580156106fd573d5f5f3e3d5ffd5b505050505050565b5f60208284031215610715575f5ffd5b5035919050565b5f81518084528060208401602086015e5f602082860101526020601f19601f83011685010191505092915050565b60e081525f61075c60e083018a61071c565b828103602084015261076e818a61071c565b60408401989098525050606081019490945260808401929092526001600160a01b031660a0830152151560c09091015292915050565b5f5f604083850312156107b5575f5ffd5b8235915060208301356001600160a01b03811681146107d2575f5ffd5b809150509250929050565b634e487b7160e01b5f52604160045260245ffd5b5f82601f830112610800575f5ffd5b813567ffffffffffffffff81111561081a5761081a6107dd565b604051601f8201601f19908116603f0116810167ffffffffffffffff81118282101715610849576108496107dd565b604052818152838201602001851015610860575f5ffd5b816020850160208301375f918101602001919091529392505050565b5f5f5f5f6080858703121561088f575f5ffd5b843567ffffffffffffffff8111156108a5575f5ffd5b6108b1878288016107f1565b945050602085013567ffffffffffffffff8111156108cd575f5ffd5b6108d9878288016107f1565b949794965050505060408301359260600135919050565b600181811c9082168061090457607f821691505b60208210810361092257634e487b7160e01b5f52602260045260245ffd5b50919050565b634e487b7160e01b5f52603260045260245ffd5b8082018082111561095b57634e487b7160e01b5f52601160045260245ffd5b92915050565b601f8211156109a857805f5260205f20601f840160051c810160208510156109865750805b601f840160051c820191505b818110156109a5575f8155600101610992565b50505b505050565b815167ffffffffffffffff8111156109c7576109c76107dd565b6109db816109d584546108f0565b84610961565b6020601f821160018114610a0d575f83156109f65750848201515b5f19600385901b1c1916600184901b1784556109a5565b5f84815260208120601f198516915b82811015610a3c5787850151825560209485019460019092019101610a1c565b5084821015610a5957868401515f19600387901b60f8161c191681555b50505050600190811b0190555056fea2646970667358221220ac52178b16a2a4c03486f2e51f6621da36a969be52d5c011faf8aafd44c02bb564736f6c634300081c0033",
  "linkReferences": {},
  "deployedLinkReferences": {},
  "immutableReferences": {},
  "inputSourceName": "project/contracts/EcoFund.sol",
  "buildInfoId": "solc-0_8_28-9c699ad2c7b49b4bf55af9b2cdca73a49019d4be"
}